{
  "contractName": "PrizeBondSystem",
  "abi": [
    {
      "inputs": [
        {
          "internalType": "uint256[]",
          "name": "_prizeDistribution",
          "type": "uint256[]"
        }
      ],
      "stateMutability": "nonpayable",
      "type": "constructor"
    },
    {
      "inputs": [],
      "name": "nextPrizeIndex",
      "outputs": [
        {
          "internalType": "uint256",
          "name": "",
          "type": "uint256"
        }
      ],
      "stateMutability": "view",
      "type": "function",
      "constant": true
    },
    {
      "inputs": [
        {
          "internalType": "uint256",
          "name": "",
          "type": "uint256"
        }
      ],
      "name": "prizeBonds",
      "outputs": [
        {
          "internalType": "uint256",
          "name": "id",
          "type": "uint256"
        },
        {
          "internalType": "address",
          "name": "owner",
          "type": "address"
        },
        {
          "internalType": "uint256",
          "name": "value",
          "type": "uint256"
        },
        {
          "internalType": "bool",
          "name": "redeemed",
          "type": "bool"
        }
      ],
      "stateMutability": "view",
      "type": "function",
      "constant": true
    },
    {
      "inputs": [
        {
          "internalType": "uint256",
          "name": "",
          "type": "uint256"
        }
      ],
      "name": "prizeDistribution",
      "outputs": [
        {
          "internalType": "uint256",
          "name": "",
          "type": "uint256"
        }
      ],
      "stateMutability": "view",
      "type": "function",
      "constant": true
    },
    {
      "inputs": [],
      "name": "remainingPrizeFund",
      "outputs": [
        {
          "internalType": "uint256",
          "name": "",
          "type": "uint256"
        }
      ],
      "stateMutability": "view",
      "type": "function",
      "constant": true
    },
    {
      "inputs": [],
      "name": "totalPrizeBonds",
      "outputs": [
        {
          "internalType": "uint256",
          "name": "",
          "type": "uint256"
        }
      ],
      "stateMutability": "view",
      "type": "function",
      "constant": true
    },
    {
      "inputs": [],
      "name": "totalPrizes",
      "outputs": [
        {
          "internalType": "uint256",
          "name": "",
          "type": "uint256"
        }
      ],
      "stateMutability": "view",
      "type": "function",
      "constant": true
    },
    {
      "inputs": [
        {
          "internalType": "uint256",
          "name": "_value",
          "type": "uint256"
        }
      ],
      "name": "issuePrizeBond",
      "outputs": [],
      "stateMutability": "nonpayable",
      "type": "function"
    },
    {
      "inputs": [
        {
          "internalType": "uint256",
          "name": "_bondId",
          "type": "uint256"
        }
      ],
      "name": "checkPrizeBond",
      "outputs": [
        {
          "internalType": "bool",
          "name": "",
          "type": "bool"
        }
      ],
      "stateMutability": "view",
      "type": "function",
      "constant": true
    },
    {
      "inputs": [
        {
          "internalType": "uint256",
          "name": "_bondId",
          "type": "uint256"
        }
      ],
      "name": "claimPrize",
      "outputs": [],
      "stateMutability": "nonpayable",
      "type": "function"
    },
    {
      "inputs": [],
      "name": "distributeRemainingPrize",
      "outputs": [],
      "stateMutability": "nonpayable",
      "type": "function"
    },
    {
      "inputs": [],
      "name": "getTotalPrizes",
      "outputs": [
        {
          "internalType": "uint256",
          "name": "",
          "type": "uint256"
        }
      ],
      "stateMutability": "view",
      "type": "function",
      "constant": true
    },
    {
      "inputs": [],
      "name": "getPrizeDistribution",
      "outputs": [
        {
          "internalType": "uint256[]",
          "name": "",
          "type": "uint256[]"
        }
      ],
      "stateMutability": "view",
      "type": "function",
      "constant": true
    },
    {
      "inputs": [],
      "name": "getRemainingPrizeFund",
      "outputs": [
        {
          "internalType": "uint256",
          "name": "",
          "type": "uint256"
        }
      ],
      "stateMutability": "view",
      "type": "function",
      "constant": true
    }
  ],
  "bytecode": "0x60806040523480156200001157600080fd5b5060405162001369380380620013698339818101604052810190620000379190620002ac565b6000600181905550600060028190555080600390805190602001906200005f92919062000077565b506000600481905550600060058190555050620002fd565b828054828255906000526020600020908101928215620000b6579160200282015b82811115620000b557825182559160200191906001019062000098565b5b509050620000c59190620000c9565b5090565b5b80821115620000e4576000816000905550600101620000ca565b5090565b6000604051905090565b600080fd5b600080fd5b600080fd5b6000601f19601f8301169050919050565b7f4e487b7100000000000000000000000000000000000000000000000000000000600052604160045260246000fd5b6200014c8262000101565b810181811067ffffffffffffffff821117156200016e576200016d62000112565b5b80604052505050565b600062000183620000e8565b905062000191828262000141565b919050565b600067ffffffffffffffff821115620001b457620001b362000112565b5b602082029050602081019050919050565b600080fd5b6000819050919050565b620001df81620001ca565b8114620001eb57600080fd5b50565b600081519050620001ff81620001d4565b92915050565b60006200021c620002168462000196565b62000177565b90508083825260208201905060208402830185811115620002425762000241620001c5565b5b835b818110156200026f57806200025a8882620001ee565b84526020840193505060208101905062000244565b5050509392505050565b600082601f830112620002915762000290620000fc565b5b8151620002a384826020860162000205565b91505092915050565b600060208284031215620002c557620002c4620000f2565b5b600082015167ffffffffffffffff811115620002e657620002e5620000f7565b5b620002f48482850162000279565b91505092915050565b61105c806200030d6000396000f3fe608060405234801561001057600080fd5b50600436106100cf5760003560e01c806382bc35b11161008c578063cbd3f96211610066578063cbd3f96214610219578063ce20c25214610237578063d709815414610255578063ed551bf014610271576100cf565b806382bc35b1146101ac578063921bf25f146101c8578063a86932c5146101e6576100cf565b8063137a50c1146100d457806325e6c3041461010457806330e803881461012257806354c237b71461014057806365a9e13c146101705780636a30847d1461018e575b600080fd5b6100ee60048036038101906100e99190610978565b61027b565b6040516100fb91906109c0565b60405180910390f35b61010c6102f7565b60405161011991906109ea565b60405180910390f35b61012a6102fd565b60405161013791906109ea565b60405180910390f35b61015a60048036038101906101559190610978565b610303565b60405161016791906109ea565b60405180910390f35b610178610327565b60405161018591906109ea565b60405180910390f35b61019661032d565b6040516101a391906109ea565b60405180910390f35b6101c660048036038101906101c19190610978565b610333565b005b6101d0610435565b6040516101dd91906109ea565b60405180910390f35b61020060048036038101906101fb9190610978565b61043f565b6040516102109493929190610a46565b60405180910390f35b61022161049c565b60405161022e9190610b49565b60405180910390f35b61023f6104f4565b60405161024c91906109ea565b60405180910390f35b61026f600480360381019061026a9190610978565b6104fe565b005b610279610703565b005b6000808211801561028e57506001548211155b6102cd576040517f08c379a00000000000000000000000000000000000000000000000000000000081526004016102c490610bc8565b60405180910390fd5b60008083815260200190815260200160002060030160009054906101000a900460ff169050919050565b60025481565b60015481565b6003818154811061031357600080fd5b906000526020600020016000915090505481565b60045481565b60055481565b6001600081548092919061034690610c17565b9190505550604051806080016040528060015481526020013373ffffffffffffffffffffffffffffffffffffffff1681526020018281526020016000151581525060008060015481526020019081526020016000206000820151816000015560208201518160010160006101000a81548173ffffffffffffffffffffffffffffffffffffffff021916908373ffffffffffffffffffffffffffffffffffffffff1602179055506040820151816002015560608201518160030160006101000a81548160ff021916908315150217905550905050806002600082825461042b9190610c5f565b9250508190555050565b6000600254905090565b60006020528060005260406000206000915090508060000154908060010160009054906101000a900473ffffffffffffffffffffffffffffffffffffffff16908060020154908060030160009054906101000a900460ff16905084565b606060038054806020026020016040519081016040528092919081815260200182805480156104ea57602002820191906000526020600020905b8154815260200190600101908083116104d6575b5050505050905090565b6000600554905090565b60008111801561051057506001548111155b61054f576040517f08c379a000000000000000000000000000000000000000000000000000000000815260040161054690610bc8565b60405180910390fd5b3373ffffffffffffffffffffffffffffffffffffffff1660008083815260200190815260200160002060010160009054906101000a900473ffffffffffffffffffffffffffffffffffffffff1673ffffffffffffffffffffffffffffffffffffffff16146105f2576040517f08c379a00000000000000000000000000000000000000000000000000000000081526004016105e990610d05565b60405180910390fd5b60008082815260200190815260200160002060030160009054906101000a900460ff1615610655576040517f08c379a000000000000000000000000000000000000000000000000000000000815260040161064c90610d71565b60405180910390fd5b600160008083815260200190815260200160002060030160006101000a81548160ff021916908315150217905550600061068d610895565b905060055481111561069f5760055490505b80600560008282546106b19190610d91565b925050819055503373ffffffffffffffffffffffffffffffffffffffff166108fc829081150290604051600060405180830381858888f193505050501580156106fe573d6000803e3d6000fd5b505050565b6003805490506004541461074c576040517f08c379a000000000000000000000000000000000000000000000000000000000815260040161074390610e37565b60405180910390fd5b600060055414610791576040517f08c379a000000000000000000000000000000000000000000000000000000000815260040161078890610ec9565b60405180910390fd5b60025460058190555060006004546001546107ac9190610d91565b90506000816005546107be9190610f18565b90506000600581905550600060045490505b60015481116108905760008082815260200190815260200160002060030160009054906101000a900460ff1661087d5760008082815260200190815260200160002060010160009054906101000a900473ffffffffffffffffffffffffffffffffffffffff1673ffffffffffffffffffffffffffffffffffffffff166108fc839081150290604051600060405180830381858888f1935050505015801561087b573d6000803e3d6000fd5b505b808061088890610c17565b9150506107d0565b505050565b6000600380549050600454106108e0576040517f08c379a00000000000000000000000000000000000000000000000000000000081526004016108d790610f95565b60405180910390fd5b600060646003600454815481106108fa576108f9610fb5565b5b90600052602060002001546002546109129190610fe4565b61091c9190610f18565b90506004600081548092919061093190610c17565b91905055508091505090565b600080fd5b6000819050919050565b61095581610942565b811461096057600080fd5b50565b6000813590506109728161094c565b92915050565b60006020828403121561098e5761098d61093d565b5b600061099c84828501610963565b91505092915050565b60008115159050919050565b6109ba816109a5565b82525050565b60006020820190506109d560008301846109b1565b92915050565b6109e481610942565b82525050565b60006020820190506109ff60008301846109db565b92915050565b600073ffffffffffffffffffffffffffffffffffffffff82169050919050565b6000610a3082610a05565b9050919050565b610a4081610a25565b82525050565b6000608082019050610a5b60008301876109db565b610a686020830186610a37565b610a7560408301856109db565b610a8260608301846109b1565b95945050505050565b600081519050919050565b600082825260208201905092915050565b6000819050602082019050919050565b610ac081610942565b82525050565b6000610ad28383610ab7565b60208301905092915050565b6000602082019050919050565b6000610af682610a8b565b610b008185610a96565b9350610b0b83610aa7565b8060005b83811015610b3c578151610b238882610ac6565b9750610b2e83610ade565b925050600181019050610b0f565b5085935050505092915050565b60006020820190508181036000830152610b638184610aeb565b905092915050565b600082825260208201905092915050565b7f496e76616c696420626f6e642049440000000000000000000000000000000000600082015250565b6000610bb2600f83610b6b565b9150610bbd82610b7c565b602082019050919050565b60006020820190508181036000830152610be181610ba5565b9050919050565b7f4e487b7100000000000000000000000000000000000000000000000000000000600052601160045260246000fd5b6000610c2282610942565b91507fffffffffffffffffffffffffffffffffffffffffffffffffffffffffffffffff8203610c5457610c53610be8565b5b600182019050919050565b6000610c6a82610942565b9150610c7583610942565b9250828201905080821115610c8d57610c8c610be8565b5b92915050565b7f596f7520617265206e6f7420746865206f776e6572206f66207468697320626f60008201527f6e64000000000000000000000000000000000000000000000000000000000000602082015250565b6000610cef602283610b6b565b9150610cfa82610c93565b604082019050919050565b60006020820190508181036000830152610d1e81610ce2565b9050919050565b7f5072697a6520616c726561647920636c61696d65640000000000000000000000600082015250565b6000610d5b601583610b6b565b9150610d6682610d25565b602082019050919050565b60006020820190508181036000830152610d8a81610d4e565b9050919050565b6000610d9c82610942565b9150610da783610942565b9250828203905081811115610dbf57610dbe610be8565b5b92915050565b7f416c6c207072697a65732068617665206e6f74206265656e20636c61696d656460008201527f2079657400000000000000000000000000000000000000000000000000000000602082015250565b6000610e21602483610b6b565b9150610e2c82610dc5565b604082019050919050565b60006020820190508181036000830152610e5081610e14565b9050919050565b7f52656d61696e696e67207072697a652066756e642068617320616c726561647960008201527f206265656e206469737472696275746564000000000000000000000000000000602082015250565b6000610eb3603183610b6b565b9150610ebe82610e57565b604082019050919050565b60006020820190508181036000830152610ee281610ea6565b9050919050565b7f4e487b7100000000000000000000000000000000000000000000000000000000600052601260045260246000fd5b6000610f2382610942565b9150610f2e83610942565b925082610f3e57610f3d610ee9565b5b828204905092915050565b7f416c6c207072697a65732068617665206265656e20636c61696d656400000000600082015250565b6000610f7f601c83610b6b565b9150610f8a82610f49565b602082019050919050565b60006020820190508181036000830152610fae81610f72565b9050919050565b7f4e487b7100000000000000000000000000000000000000000000000000000000600052603260045260246000fd5b6000610fef82610942565b9150610ffa83610942565b925082820261100881610942565b9150828204841483151761101f5761101e610be8565b5b509291505056fea2646970667358221220798c417b7b43d44fbe7ffb08c38619244631fe01c43e662421f6c5bc0dc821c164736f6c63430008130033",
  "immutableReferences": {},
  "source": "// SPDX-License-Identifier: MIT\npragma solidity ^0.8.19;\n\ncontract PrizeBondSystem {\n    struct PrizeBond {\n        uint id;\n        address owner;\n        uint value;\n        bool redeemed;\n    }\n\n    mapping(uint => PrizeBond) public prizeBonds;\n    uint public totalPrizeBonds;\n    uint public totalPrizes;\n\n    uint[] public prizeDistribution;\n    uint public nextPrizeIndex;\n    uint public remainingPrizeFund;\n\n    constructor (uint[] memory _prizeDistribution) {\n        totalPrizeBonds = 0;\n        totalPrizes = 0;\n        prizeDistribution = _prizeDistribution;\n        nextPrizeIndex = 0;\n        remainingPrizeFund = 0;\n    }\n\n    function issuePrizeBond(uint _value) public {\n        totalPrizeBonds++;\n        prizeBonds[totalPrizeBonds] = PrizeBond(totalPrizeBonds, msg.sender, _value, false);\n        totalPrizes += _value;\n    }\n\n    function checkPrizeBond(uint _bondId) public view returns (bool) {\n        require(_bondId > 0 && _bondId <= totalPrizeBonds, \"Invalid bond ID\");\n        return prizeBonds[_bondId].redeemed;\n    }\n\n    function claimPrize(uint _bondId) public {\n        require(_bondId > 0 && _bondId <= totalPrizeBonds, \"Invalid bond ID\");\n        require(prizeBonds[_bondId].owner == msg.sender, \"You are not the owner of this bond\");\n        require(!prizeBonds[_bondId].redeemed, \"Prize already claimed\");\n\n        prizeBonds[_bondId].redeemed = true;\n        uint prizeAmount = calculatePrizeAmount();\n        if (prizeAmount > remainingPrizeFund) {\n            prizeAmount = remainingPrizeFund;\n        }\n        remainingPrizeFund -= prizeAmount;\n        payable(msg.sender).transfer(prizeAmount);\n    }\n\n    function calculatePrizeAmount() private returns (uint) {\n        require(nextPrizeIndex < prizeDistribution.length, \"All prizes have been claimed\");\n\n        uint prizeAmount = totalPrizes * prizeDistribution[nextPrizeIndex] / 100;\n        nextPrizeIndex++;\n        return prizeAmount;\n    }\n\n    function distributeRemainingPrize() public {\n        require(nextPrizeIndex == prizeDistribution.length, \"All prizes have not been claimed yet\");\n        require(remainingPrizeFund == 0, \"Remaining prize fund has already been distributed\");\n\n        remainingPrizeFund = totalPrizes;\n        uint numParticipants = totalPrizeBonds - nextPrizeIndex;\n        uint prizePerParticipant = remainingPrizeFund / numParticipants;\n        remainingPrizeFund = 0;\n\n        for (uint i = nextPrizeIndex; i <= totalPrizeBonds; i++) {\n            if (!prizeBonds[i].redeemed) {\n                payable(prizeBonds[i].owner).transfer(prizePerParticipant);\n            }\n        }\n    }\n\n    function getTotalPrizes() public view returns (uint) {\n        return totalPrizes;\n    }\n\n    function getPrizeDistribution() public view returns (uint[] memory) {\n        return prizeDistribution;\n    }\n\n    function getRemainingPrizeFund() public view returns (uint) {\n        return remainingPrizeFund;\n    }\n}\n",
  "sourcePath": "/home/hp/Desktop/BlockChain/Group_Act_Dapp/etherPrizeBond/contracts/PrizeBondSystem.sol",
  "compiler": {
    "name": "solc",
    "version": "0.8.19+commit.7dd6d404.Emscripten.clang"
  },
  "schemaVersion": "3.4.16",
  "updatedAt": "2024-04-20T15:00:15.223Z",
  "networkType": "ethereum",
  "devdoc": {
    "kind": "dev",
    "methods": {},
    "version": 1
  },
  "userdoc": {
    "kind": "user",
    "methods": {},
    "version": 1
  }
}