{
  "contractName": "PrizeBondSystem",
  "abi": [
    {
      "inputs": [
        {
          "internalType": "uint256[]",
          "name": "_prizeDistribution",
          "type": "uint256[]"
        }
      ],
      "stateMutability": "nonpayable",
      "type": "constructor"
    },
    {
      "inputs": [],
      "name": "nextPrizeIndex",
      "outputs": [
        {
          "internalType": "uint256",
          "name": "",
          "type": "uint256"
        }
      ],
      "stateMutability": "view",
      "type": "function",
      "constant": true
    },
    {
      "inputs": [
        {
          "internalType": "uint256",
          "name": "",
          "type": "uint256"
        }
      ],
      "name": "prizeBonds",
      "outputs": [
        {
          "internalType": "uint256",
          "name": "id",
          "type": "uint256"
        },
        {
          "internalType": "address",
          "name": "owner",
          "type": "address"
        },
        {
          "internalType": "uint256",
          "name": "value",
          "type": "uint256"
        },
        {
          "internalType": "bool",
          "name": "redeemed",
          "type": "bool"
        }
      ],
      "stateMutability": "view",
      "type": "function",
      "constant": true
    },
    {
      "inputs": [
        {
          "internalType": "uint256",
          "name": "",
          "type": "uint256"
        }
      ],
      "name": "prizeDistribution",
      "outputs": [
        {
          "internalType": "uint256",
          "name": "",
          "type": "uint256"
        }
      ],
      "stateMutability": "view",
      "type": "function",
      "constant": true
    },
    {
      "inputs": [],
      "name": "remainingPrizeFund",
      "outputs": [
        {
          "internalType": "uint256",
          "name": "",
          "type": "uint256"
        }
      ],
      "stateMutability": "view",
      "type": "function",
      "constant": true
    },
    {
      "inputs": [],
      "name": "totalPrizeBonds",
      "outputs": [
        {
          "internalType": "uint256",
          "name": "",
          "type": "uint256"
        }
      ],
      "stateMutability": "view",
      "type": "function",
      "constant": true
    },
    {
      "inputs": [],
      "name": "totalPrizes",
      "outputs": [
        {
          "internalType": "uint256",
          "name": "",
          "type": "uint256"
        }
      ],
      "stateMutability": "view",
      "type": "function",
      "constant": true
    },
    {
      "inputs": [
        {
          "internalType": "uint256",
          "name": "_value",
          "type": "uint256"
        }
      ],
      "name": "issuePrizeBond",
      "outputs": [],
      "stateMutability": "nonpayable",
      "type": "function"
    },
    {
      "inputs": [
        {
          "internalType": "uint256",
          "name": "_bondId",
          "type": "uint256"
        }
      ],
      "name": "checkPrizeBond",
      "outputs": [
        {
          "internalType": "bool",
          "name": "",
          "type": "bool"
        }
      ],
      "stateMutability": "view",
      "type": "function",
      "constant": true
    },
    {
      "inputs": [
        {
          "internalType": "uint256",
          "name": "_bondId",
          "type": "uint256"
        }
      ],
      "name": "claimPrize",
      "outputs": [],
      "stateMutability": "nonpayable",
      "type": "function"
    },
    {
      "inputs": [],
      "name": "getTotalPrizes",
      "outputs": [
        {
          "internalType": "uint256",
          "name": "",
          "type": "uint256"
        }
      ],
      "stateMutability": "view",
      "type": "function",
      "constant": true
    },
    {
      "inputs": [],
      "name": "getPrizeDistribution",
      "outputs": [
        {
          "internalType": "uint256[]",
          "name": "",
          "type": "uint256[]"
        }
      ],
      "stateMutability": "view",
      "type": "function",
      "constant": true
    },
    {
      "inputs": [],
      "name": "getRemainingPrizeFund",
      "outputs": [
        {
          "internalType": "uint256",
          "name": "",
          "type": "uint256"
        }
      ],
      "stateMutability": "view",
      "type": "function",
      "constant": true
    }
  ],
  "bytecode": "0x60806040523480156200001157600080fd5b50604051620010e5380380620010e58339818101604052810190620000379190620002ac565b6000600181905550600060028190555080600390805190602001906200005f92919062000077565b506000600481905550600060058190555050620002fd565b828054828255906000526020600020908101928215620000b6579160200282015b82811115620000b557825182559160200191906001019062000098565b5b509050620000c59190620000c9565b5090565b5b80821115620000e4576000816000905550600101620000ca565b5090565b6000604051905090565b600080fd5b600080fd5b600080fd5b6000601f19601f8301169050919050565b7f4e487b7100000000000000000000000000000000000000000000000000000000600052604160045260246000fd5b6200014c8262000101565b810181811067ffffffffffffffff821117156200016e576200016d62000112565b5b80604052505050565b600062000183620000e8565b905062000191828262000141565b919050565b600067ffffffffffffffff821115620001b457620001b362000112565b5b602082029050602081019050919050565b600080fd5b6000819050919050565b620001df81620001ca565b8114620001eb57600080fd5b50565b600081519050620001ff81620001d4565b92915050565b60006200021c620002168462000196565b62000177565b90508083825260208201905060208402830185811115620002425762000241620001c5565b5b835b818110156200026f57806200025a8882620001ee565b84526020840193505060208101905062000244565b5050509392505050565b600082601f830112620002915762000290620000fc565b5b8151620002a384826020860162000205565b91505092915050565b600060208284031215620002c557620002c4620000f2565b5b600082015167ffffffffffffffff811115620002e657620002e5620000f7565b5b620002f48482850162000279565b91505092915050565b610dd8806200030d6000396000f3fe608060405234801561001057600080fd5b50600436106100b45760003560e01c806382bc35b11161007157806382bc35b114610191578063921bf25f146101ad578063a86932c5146101cb578063cbd3f962146101fe578063ce20c2521461021c578063d70981541461023a576100b4565b8063137a50c1146100b957806325e6c304146100e957806330e803881461010757806354c237b71461012557806365a9e13c146101555780636a30847d14610173575b600080fd5b6100d360048036038101906100ce9190610818565b610256565b6040516100e09190610860565b60405180910390f35b6100f1610329565b6040516100fe919061088a565b60405180910390f35b61010f61032f565b60405161011c919061088a565b60405180910390f35b61013f600480360381019061013a9190610818565b610335565b60405161014c919061088a565b60405180910390f35b61015d610359565b60405161016a919061088a565b60405180910390f35b61017b61035f565b604051610188919061088a565b60405180910390f35b6101ab60048036038101906101a69190610818565b610365565b005b6101b5610467565b6040516101c2919061088a565b60405180910390f35b6101e560048036038101906101e09190610818565b610471565b6040516101f594939291906108e6565b60405180910390f35b6102066104ce565b60405161021391906109e9565b60405180910390f35b610224610526565b604051610231919061088a565b60405180910390f35b610254600480360381019061024f9190610818565b610530565b005b6000808211801561026957506001548211155b6102a8576040517f08c379a000000000000000000000000000000000000000000000000000000000815260040161029f90610a68565b60405180910390fd5b6000808381526020019081526020016000206000015482146102ff576040517f08c379a00000000000000000000000000000000000000000000000000000000081526004016102f690610a68565b60405180910390fd5b60008083815260200190815260200160002060030160009054906101000a900460ff169050919050565b60025481565b60015481565b6003818154811061034557600080fd5b906000526020600020016000915090505481565b60045481565b60055481565b6001600081548092919061037890610ab7565b9190505550604051806080016040528060015481526020013373ffffffffffffffffffffffffffffffffffffffff1681526020018281526020016000151581525060008060015481526020019081526020016000206000820151816000015560208201518160010160006101000a81548173ffffffffffffffffffffffffffffffffffffffff021916908373ffffffffffffffffffffffffffffffffffffffff1602179055506040820151816002015560608201518160030160006101000a81548160ff021916908315150217905550905050806002600082825461045d9190610aff565b9250508190555050565b6000600254905090565b60006020528060005260406000206000915090508060000154908060010160009054906101000a900473ffffffffffffffffffffffffffffffffffffffff16908060020154908060030160009054906101000a900460ff16905084565b6060600380548060200260200160405190810160405280929190818152602001828054801561051c57602002820191906000526020600020905b815481526020019060010190808311610508575b5050505050905090565b6000600554905090565b60008111801561054257506001548111155b610581576040517f08c379a000000000000000000000000000000000000000000000000000000000815260040161057890610a68565b60405180910390fd5b3373ffffffffffffffffffffffffffffffffffffffff1660008083815260200190815260200160002060010160009054906101000a900473ffffffffffffffffffffffffffffffffffffffff1673ffffffffffffffffffffffffffffffffffffffff1614610624576040517f08c379a000000000000000000000000000000000000000000000000000000000815260040161061b90610ba5565b60405180910390fd5b60008082815260200190815260200160002060030160009054906101000a900460ff1615610687576040517f08c379a000000000000000000000000000000000000000000000000000000000815260040161067e90610c11565b60405180910390fd5b600160008083815260200190815260200160002060030160006101000a81548160ff02191690831515021790555060006106bf610735565b90506005548111156106d15760055490505b80600560008282546106e39190610c31565b925050819055503373ffffffffffffffffffffffffffffffffffffffff166108fc829081150290604051600060405180830381858888f19350505050158015610730573d6000803e3d6000fd5b505050565b600060038054905060045410610780576040517f08c379a000000000000000000000000000000000000000000000000000000000815260040161077790610cb1565b60405180910390fd5b6000606460036004548154811061079a57610799610cd1565b5b90600052602060002001546002546107b29190610d00565b6107bc9190610d71565b9050600460008154809291906107d190610ab7565b91905055508091505090565b600080fd5b6000819050919050565b6107f5816107e2565b811461080057600080fd5b50565b600081359050610812816107ec565b92915050565b60006020828403121561082e5761082d6107dd565b5b600061083c84828501610803565b91505092915050565b60008115159050919050565b61085a81610845565b82525050565b60006020820190506108756000830184610851565b92915050565b610884816107e2565b82525050565b600060208201905061089f600083018461087b565b92915050565b600073ffffffffffffffffffffffffffffffffffffffff82169050919050565b60006108d0826108a5565b9050919050565b6108e0816108c5565b82525050565b60006080820190506108fb600083018761087b565b61090860208301866108d7565b610915604083018561087b565b6109226060830184610851565b95945050505050565b600081519050919050565b600082825260208201905092915050565b6000819050602082019050919050565b610960816107e2565b82525050565b60006109728383610957565b60208301905092915050565b6000602082019050919050565b60006109968261092b565b6109a08185610936565b93506109ab83610947565b8060005b838110156109dc5781516109c38882610966565b97506109ce8361097e565b9250506001810190506109af565b5085935050505092915050565b60006020820190508181036000830152610a03818461098b565b905092915050565b600082825260208201905092915050565b7f496e76616c696420626f6e642049440000000000000000000000000000000000600082015250565b6000610a52600f83610a0b565b9150610a5d82610a1c565b602082019050919050565b60006020820190508181036000830152610a8181610a45565b9050919050565b7f4e487b7100000000000000000000000000000000000000000000000000000000600052601160045260246000fd5b6000610ac2826107e2565b91507fffffffffffffffffffffffffffffffffffffffffffffffffffffffffffffffff8203610af457610af3610a88565b5b600182019050919050565b6000610b0a826107e2565b9150610b15836107e2565b9250828201905080821115610b2d57610b2c610a88565b5b92915050565b7f596f7520617265206e6f7420746865206f776e6572206f66207468697320626f60008201527f6e64000000000000000000000000000000000000000000000000000000000000602082015250565b6000610b8f602283610a0b565b9150610b9a82610b33565b604082019050919050565b60006020820190508181036000830152610bbe81610b82565b9050919050565b7f5072697a6520616c726561647920636c61696d65640000000000000000000000600082015250565b6000610bfb601583610a0b565b9150610c0682610bc5565b602082019050919050565b60006020820190508181036000830152610c2a81610bee565b9050919050565b6000610c3c826107e2565b9150610c47836107e2565b9250828203905081811115610c5f57610c5e610a88565b5b92915050565b7f416c6c207072697a65732068617665206265656e20636c61696d656400000000600082015250565b6000610c9b601c83610a0b565b9150610ca682610c65565b602082019050919050565b60006020820190508181036000830152610cca81610c8e565b9050919050565b7f4e487b7100000000000000000000000000000000000000000000000000000000600052603260045260246000fd5b6000610d0b826107e2565b9150610d16836107e2565b9250828202610d24816107e2565b91508282048414831517610d3b57610d3a610a88565b5b5092915050565b7f4e487b7100000000000000000000000000000000000000000000000000000000600052601260045260246000fd5b6000610d7c826107e2565b9150610d87836107e2565b925082610d9757610d96610d42565b5b82820490509291505056fea26469706673582212204594a7bf912105660cc566f32860d3313f218cce9975691fe5f33415120cf0f664736f6c63430008130033",
  "immutableReferences": {},
  "source": "// SPDX-License-Identifier: MIT\npragma solidity ^0.8.19;\n\ncontract PrizeBondSystem {\n    struct PrizeBond {\n        uint id;\n        address owner;\n        uint value;\n        bool redeemed;\n    }\n\n    mapping(uint => PrizeBond) public prizeBonds;\n    uint public totalPrizeBonds;\n    uint public totalPrizes;\n\n    uint[] public prizeDistribution;\n    uint public nextPrizeIndex;\n    uint public remainingPrizeFund;\n\n    constructor (uint[] memory _prizeDistribution) {\n        totalPrizeBonds = 0;\n        totalPrizes = 0;\n        prizeDistribution = _prizeDistribution;\n        nextPrizeIndex = 0;\n        remainingPrizeFund = 0;\n    }\n\n    function issuePrizeBond(uint _value) public {\n        totalPrizeBonds++;\n        prizeBonds[totalPrizeBonds] = PrizeBond(totalPrizeBonds, msg.sender, _value, false);\n        totalPrizes += _value;\n    }\n\n    function checkPrizeBond(uint _bondId) public view returns (bool) {\n        require(_bondId > 0 && _bondId <= totalPrizeBonds, \"Invalid bond ID\");\n        require (_bondId == prizeBonds[_bondId].id, \"Invalid bond ID\");\n        return prizeBonds[_bondId].redeemed;\n    }\n\n    function claimPrize(uint _bondId) public {\n        require(_bondId > 0 && _bondId <= totalPrizeBonds, \"Invalid bond ID\");\n        require(prizeBonds[_bondId].owner == msg.sender, \"You are not the owner of this bond\");\n        require(!prizeBonds[_bondId].redeemed, \"Prize already claimed\");\n\n        prizeBonds[_bondId].redeemed = true;\n        uint prizeAmount = calculatePrizeAmount();\n        if (prizeAmount > remainingPrizeFund) {\n            prizeAmount = remainingPrizeFund;\n        }\n        remainingPrizeFund -= prizeAmount;\n        payable(msg.sender).transfer(prizeAmount);\n    }\n\n    function calculatePrizeAmount() private returns (uint) {\n        require(nextPrizeIndex < prizeDistribution.length, \"All prizes have been claimed\");\n\n        uint prizeAmount = totalPrizes * prizeDistribution[nextPrizeIndex] / 100;\n        nextPrizeIndex++;\n        return prizeAmount;\n    }\n\n    // function distributeRemainingPrize() public {\n    //     require(nextPrizeIndex == prizeDistribution.length, \"All prizes have not been claimed yet\");\n    //     require(remainingPrizeFund == 0, \"Remaining prize fund has already been distributed\");\n\n    //     remainingPrizeFund = totalPrizes;\n    //     uint numParticipants = totalPrizeBonds - nextPrizeIndex;\n    //     uint prizePerParticipant = remainingPrizeFund / numParticipants;\n    //     remainingPrizeFund = 0;\n\n    //     for (uint i = nextPrizeIndex; i <= totalPrizeBonds; i++) {\n    //         if (!prizeBonds[i].redeemed) {\n    //             payable(prizeBonds[i].owner).transfer(prizePerParticipant);\n    //         }\n    //     }\n    // }\n\n    function getTotalPrizes() public view returns (uint) {\n        return totalPrizes;\n    }\n\n    function getPrizeDistribution() public view returns (uint[] memory) {\n        return prizeDistribution;\n    }\n\n    function getRemainingPrizeFund() public view returns (uint) {\n        return remainingPrizeFund;\n    }\n}\n",
  "sourcePath": "/home/hp/Desktop/dapp/etherPrizeBond/contracts/PrizeBondSystem.sol",
  "compiler": {
    "name": "solc",
    "version": "0.8.19+commit.7dd6d404.Emscripten.clang"
  },
  "schemaVersion": "3.4.16",
  "updatedAt": "2024-04-25T18:54:08.795Z",
  "networkType": "ethereum",
  "devdoc": {
    "kind": "dev",
    "methods": {},
    "version": 1
  },
  "userdoc": {
    "kind": "user",
    "methods": {},
    "version": 1
  }
}