{
  "contractName": "PrizeBondSystem",
  "abi": [
    {
      "inputs": [
        {
          "internalType": "uint256[]",
          "name": "_prizeDistribution",
          "type": "uint256[]"
        }
      ],
      "stateMutability": "nonpayable",
      "type": "constructor"
    },
    {
      "inputs": [],
      "name": "nextPrizeIndex",
      "outputs": [
        {
          "internalType": "uint256",
          "name": "",
          "type": "uint256"
        }
      ],
      "stateMutability": "view",
      "type": "function",
      "constant": true
    },
    {
      "inputs": [
        {
          "internalType": "uint256",
          "name": "",
          "type": "uint256"
        }
      ],
      "name": "prizeBonds",
      "outputs": [
        {
          "internalType": "uint256",
          "name": "id",
          "type": "uint256"
        },
        {
          "internalType": "address",
          "name": "owner",
          "type": "address"
        },
        {
          "internalType": "uint256",
          "name": "value",
          "type": "uint256"
        },
        {
          "internalType": "bool",
          "name": "redeemed",
          "type": "bool"
        }
      ],
      "stateMutability": "view",
      "type": "function",
      "constant": true
    },
    {
      "inputs": [
        {
          "internalType": "uint256",
          "name": "",
          "type": "uint256"
        }
      ],
      "name": "prizeDistribution",
      "outputs": [
        {
          "internalType": "uint256",
          "name": "",
          "type": "uint256"
        }
      ],
      "stateMutability": "view",
      "type": "function",
      "constant": true
    },
    {
      "inputs": [],
      "name": "remainingPrizeFund",
      "outputs": [
        {
          "internalType": "uint256",
          "name": "",
          "type": "uint256"
        }
      ],
      "stateMutability": "view",
      "type": "function",
      "constant": true
    },
    {
      "inputs": [],
      "name": "totalPrizeBonds",
      "outputs": [
        {
          "internalType": "uint256",
          "name": "",
          "type": "uint256"
        }
      ],
      "stateMutability": "view",
      "type": "function",
      "constant": true
    },
    {
      "inputs": [],
      "name": "totalPrizes",
      "outputs": [
        {
          "internalType": "uint256",
          "name": "",
          "type": "uint256"
        }
      ],
      "stateMutability": "view",
      "type": "function",
      "constant": true
    },
    {
      "inputs": [],
      "name": "totalWinnersSelected",
      "outputs": [
        {
          "internalType": "uint256",
          "name": "",
          "type": "uint256"
        }
      ],
      "stateMutability": "view",
      "type": "function",
      "constant": true
    },
    {
      "inputs": [
        {
          "internalType": "uint256",
          "name": "",
          "type": "uint256"
        }
      ],
      "name": "winners",
      "outputs": [
        {
          "internalType": "address",
          "name": "",
          "type": "address"
        }
      ],
      "stateMutability": "view",
      "type": "function",
      "constant": true
    },
    {
      "inputs": [
        {
          "internalType": "uint256",
          "name": "_value",
          "type": "uint256"
        }
      ],
      "name": "issuePrizeBond",
      "outputs": [],
      "stateMutability": "nonpayable",
      "type": "function"
    },
    {
      "inputs": [
        {
          "internalType": "uint256",
          "name": "_bondId",
          "type": "uint256"
        }
      ],
      "name": "checkPrizeBond",
      "outputs": [
        {
          "internalType": "bool",
          "name": "",
          "type": "bool"
        }
      ],
      "stateMutability": "view",
      "type": "function",
      "constant": true
    },
    {
      "inputs": [
        {
          "internalType": "uint256",
          "name": "_bondId",
          "type": "uint256"
        }
      ],
      "name": "claimPrize",
      "outputs": [],
      "stateMutability": "nonpayable",
      "type": "function"
    },
    {
      "inputs": [
        {
          "internalType": "uint256",
          "name": "_bondId",
          "type": "uint256"
        }
      ],
      "name": "getBondOwner",
      "outputs": [
        {
          "internalType": "address",
          "name": "",
          "type": "address"
        }
      ],
      "stateMutability": "view",
      "type": "function",
      "constant": true
    },
    {
      "inputs": [],
      "name": "getWinners",
      "outputs": [
        {
          "internalType": "address[]",
          "name": "",
          "type": "address[]"
        }
      ],
      "stateMutability": "view",
      "type": "function",
      "constant": true
    },
    {
      "inputs": [],
      "name": "getTotalPrizes",
      "outputs": [
        {
          "internalType": "uint256",
          "name": "",
          "type": "uint256"
        }
      ],
      "stateMutability": "view",
      "type": "function",
      "constant": true
    },
    {
      "inputs": [],
      "name": "getTotalPrizeBonds",
      "outputs": [
        {
          "internalType": "uint256",
          "name": "",
          "type": "uint256"
        }
      ],
      "stateMutability": "view",
      "type": "function",
      "constant": true
    },
    {
      "inputs": [],
      "name": "getPrizeDistribution",
      "outputs": [
        {
          "internalType": "uint256[]",
          "name": "",
          "type": "uint256[]"
        }
      ],
      "stateMutability": "view",
      "type": "function",
      "constant": true
    },
    {
      "inputs": [],
      "name": "getRemainingPrizeFund",
      "outputs": [
        {
          "internalType": "uint256",
          "name": "",
          "type": "uint256"
        }
      ],
      "stateMutability": "view",
      "type": "function",
      "constant": true
    }
  ],
  "bytecode": "0x60806040523480156200001157600080fd5b5060405162001734380380620017348339818101604052810190620000379190620002b5565b6000600181905550600060028190555080600390805190602001906200005f92919062000080565b50600060048190555060025460058190555060006006819055505062000306565b828054828255906000526020600020908101928215620000bf579160200282015b82811115620000be578251825591602001919060010190620000a1565b5b509050620000ce9190620000d2565b5090565b5b80821115620000ed576000816000905550600101620000d3565b5090565b6000604051905090565b600080fd5b600080fd5b600080fd5b6000601f19601f8301169050919050565b7f4e487b7100000000000000000000000000000000000000000000000000000000600052604160045260246000fd5b62000155826200010a565b810181811067ffffffffffffffff821117156200017757620001766200011b565b5b80604052505050565b60006200018c620000f1565b90506200019a82826200014a565b919050565b600067ffffffffffffffff821115620001bd57620001bc6200011b565b5b602082029050602081019050919050565b600080fd5b6000819050919050565b620001e881620001d3565b8114620001f457600080fd5b50565b6000815190506200020881620001dd565b92915050565b6000620002256200021f846200019f565b62000180565b905080838252602082019050602084028301858111156200024b576200024a620001ce565b5b835b81811015620002785780620002638882620001f7565b8452602084019350506020810190506200024d565b5050509392505050565b600082601f8301126200029a576200029962000105565b5b8151620002ac8482602086016200020e565b91505092915050565b600060208284031215620002ce57620002cd620000fb565b5b600082015167ffffffffffffffff811115620002ef57620002ee62000100565b5b620002fd8482850162000282565b91505092915050565b61141e80620003166000396000f3fe608060405234801561001057600080fd5b506004361061010b5760003560e01c8063921bf25f116100a2578063cbd3f96211610071578063cbd3f962146102d3578063ce20c252146102f1578063d70981541461030f578063df15c37e1461032b578063ef24822f146103495761010b565b8063921bf25f14610222578063a2fb117514610240578063a86932c514610270578063bb305ef2146102a35761010b565b806354c237b7116100de57806354c237b71461019a57806365a9e13c146101ca5780636a30847d146101e857806382bc35b1146102065761010b565b80630631e93f14610110578063137a50c11461012e57806325e6c3041461015e57806330e803881461017c575b600080fd5b610118610367565b6040516101259190610c17565b60405180910390f35b61014860048036038101906101439190610c63565b61036d565b6040516101559190610cab565b60405180910390f35b610166610440565b6040516101739190610c17565b60405180910390f35b610184610446565b6040516101919190610c17565b60405180910390f35b6101b460048036038101906101af9190610c63565b61044c565b6040516101c19190610c17565b60405180910390f35b6101d2610470565b6040516101df9190610c17565b60405180910390f35b6101f0610476565b6040516101fd9190610c17565b60405180910390f35b610220600480360381019061021b9190610c63565b61047c565b005b61022a6105aa565b6040516102379190610c17565b60405180910390f35b61025a60048036038101906102559190610c63565b6105b4565b6040516102679190610d07565b60405180910390f35b61028a60048036038101906102859190610c63565b6105e7565b60405161029a9493929190610d22565b60405180910390f35b6102bd60048036038101906102b89190610c63565b610644565b6040516102ca9190610d07565b60405180910390f35b6102db610683565b6040516102e89190610e25565b60405180910390f35b6102f96106db565b6040516103069190610c17565b60405180910390f35b61032960048036038101906103249190610c63565b6106e5565b005b610333610903565b6040516103409190610f05565b60405180910390f35b6103516109fb565b60405161035e9190610c17565b60405180910390f35b60065481565b6000808211801561038057506001548211155b6103bf576040517f08c379a00000000000000000000000000000000000000000000000000000000081526004016103b690610f84565b60405180910390fd5b600080838152602001908152602001600020600001548214610416576040517f08c379a000000000000000000000000000000000000000000000000000000000815260040161040d90610f84565b60405180910390fd5b60008083815260200190815260200160002060030160009054906101000a900460ff169050919050565b60025481565b60015481565b6003818154811061045c57600080fd5b906000526020600020016000915090505481565b60045481565b60055481565b6001600081548092919061048f90610fd3565b9190505550604051806080016040528060015481526020013373ffffffffffffffffffffffffffffffffffffffff1681526020018281526020016000151581525060008060015481526020019081526020016000206000820151816000015560208201518160010160006101000a81548173ffffffffffffffffffffffffffffffffffffffff021916908373ffffffffffffffffffffffffffffffffffffffff1602179055506040820151816002015560608201518160030160006101000a81548160ff0219169083151502179055509050508060026000828254610574919061101b565b92505081905550806005600082825461058d919061101b565b92505081905550600a600154036105a7576105a6610a05565b5b50565b6000600254905090565b60076020528060005260406000206000915054906101000a900473ffffffffffffffffffffffffffffffffffffffff1681565b60006020528060005260406000206000915090508060000154908060010160009054906101000a900473ffffffffffffffffffffffffffffffffffffffff16908060020154908060030160009054906101000a900460ff16905084565b600080600083815260200190815260200160002060010160009054906101000a900473ffffffffffffffffffffffffffffffffffffffff169050919050565b606060038054806020026020016040519081016040528092919081815260200182805480156106d157602002820191906000526020600020905b8154815260200190600101908083116106bd575b5050505050905090565b6000600554905090565b6000811180156106f757506001548111155b610736576040517f08c379a000000000000000000000000000000000000000000000000000000000815260040161072d90610f84565b60405180910390fd5b3373ffffffffffffffffffffffffffffffffffffffff1660008083815260200190815260200160002060010160009054906101000a900473ffffffffffffffffffffffffffffffffffffffff1673ffffffffffffffffffffffffffffffffffffffff16146107d9576040517f08c379a00000000000000000000000000000000000000000000000000000000081526004016107d0906110c1565b60405180910390fd5b60008082815260200190815260200160002060030160009054906101000a900460ff161561083c576040517f08c379a00000000000000000000000000000000000000000000000000000000081526004016108339061112d565b60405180910390fd5b600160008083815260200190815260200160002060030160006101000a81548160ff0219169083151502179055506000610874610b56565b90506005548110156108865760055490505b8060056000828254610898919061114d565b9250508190555080600260008282546108b1919061114d565b925050819055503373ffffffffffffffffffffffffffffffffffffffff166108fc829081150290604051600060405180830381858888f193505050501580156108fe573d6000803e3d6000fd5b505050565b60606000600367ffffffffffffffff81111561092257610921611181565b5b6040519080825280602002602001820160405280156109505781602001602082028036833780820191505090505b50905060005b60038110156109f3576007600082815260200190815260200160002060009054906101000a900473ffffffffffffffffffffffffffffffffffffffff168282815181106109a6576109a56111b0565b5b602002602001019073ffffffffffffffffffffffffffffffffffffffff16908173ffffffffffffffffffffffffffffffffffffffff168152505080806109eb90610fd3565b915050610956565b508091505090565b6000600154905090565b600360065410610a4a576040517f08c379a0000000000000000000000000000000000000000000000000000000008152600401610a419061122b565b60405180910390fd5b60005b6003811015610b5357600060018054424485604051602001610a719392919061126c565b6040516020818303038152906040528051906020012060001c610a9491906112d8565b610a9e919061101b565b905060008082815260200190815260200160002060010160009054906101000a900473ffffffffffffffffffffffffffffffffffffffff166007600084815260200190815260200160002060006101000a81548173ffffffffffffffffffffffffffffffffffffffff021916908373ffffffffffffffffffffffffffffffffffffffff16021790555060066000815480929190610b3a90610fd3565b9190505550508080610b4b90610fd3565b915050610a4d565b50565b600060038054905060045410610ba1576040517f08c379a0000000000000000000000000000000000000000000000000000000008152600401610b9890611355565b60405180910390fd5b60006064600360045481548110610bbb57610bba6111b0565b5b9060005260206000200154600254610bd39190611375565b610bdd91906113b7565b905060046000815480929190610bf290610fd3565b91905055508091505090565b6000819050919050565b610c1181610bfe565b82525050565b6000602082019050610c2c6000830184610c08565b92915050565b600080fd5b610c4081610bfe565b8114610c4b57600080fd5b50565b600081359050610c5d81610c37565b92915050565b600060208284031215610c7957610c78610c32565b5b6000610c8784828501610c4e565b91505092915050565b60008115159050919050565b610ca581610c90565b82525050565b6000602082019050610cc06000830184610c9c565b92915050565b600073ffffffffffffffffffffffffffffffffffffffff82169050919050565b6000610cf182610cc6565b9050919050565b610d0181610ce6565b82525050565b6000602082019050610d1c6000830184610cf8565b92915050565b6000608082019050610d376000830187610c08565b610d446020830186610cf8565b610d516040830185610c08565b610d5e6060830184610c9c565b95945050505050565b600081519050919050565b600082825260208201905092915050565b6000819050602082019050919050565b610d9c81610bfe565b82525050565b6000610dae8383610d93565b60208301905092915050565b6000602082019050919050565b6000610dd282610d67565b610ddc8185610d72565b9350610de783610d83565b8060005b83811015610e18578151610dff8882610da2565b9750610e0a83610dba565b925050600181019050610deb565b5085935050505092915050565b60006020820190508181036000830152610e3f8184610dc7565b905092915050565b600081519050919050565b600082825260208201905092915050565b6000819050602082019050919050565b610e7c81610ce6565b82525050565b6000610e8e8383610e73565b60208301905092915050565b6000602082019050919050565b6000610eb282610e47565b610ebc8185610e52565b9350610ec783610e63565b8060005b83811015610ef8578151610edf8882610e82565b9750610eea83610e9a565b925050600181019050610ecb565b5085935050505092915050565b60006020820190508181036000830152610f1f8184610ea7565b905092915050565b600082825260208201905092915050565b7f496e76616c696420626f6e642049440000000000000000000000000000000000600082015250565b6000610f6e600f83610f27565b9150610f7982610f38565b602082019050919050565b60006020820190508181036000830152610f9d81610f61565b9050919050565b7f4e487b7100000000000000000000000000000000000000000000000000000000600052601160045260246000fd5b6000610fde82610bfe565b91507fffffffffffffffffffffffffffffffffffffffffffffffffffffffffffffffff82036110105761100f610fa4565b5b600182019050919050565b600061102682610bfe565b915061103183610bfe565b925082820190508082111561104957611048610fa4565b5b92915050565b7f596f7520617265206e6f7420746865206f776e6572206f66207468697320626f60008201527f6e64000000000000000000000000000000000000000000000000000000000000602082015250565b60006110ab602283610f27565b91506110b68261104f565b604082019050919050565b600060208201905081810360008301526110da8161109e565b9050919050565b7f5072697a6520616c726561647920636c61696d65640000000000000000000000600082015250565b6000611117601583610f27565b9150611122826110e1565b602082019050919050565b600060208201905081810360008301526111468161110a565b9050919050565b600061115882610bfe565b915061116383610bfe565b925082820390508181111561117b5761117a610fa4565b5b92915050565b7f4e487b7100000000000000000000000000000000000000000000000000000000600052604160045260246000fd5b7f4e487b7100000000000000000000000000000000000000000000000000000000600052603260045260246000fd5b7f57696e6e65727320616c72656164792073656c65637465640000000000000000600082015250565b6000611215601883610f27565b9150611220826111df565b602082019050919050565b6000602082019050818103600083015261124481611208565b9050919050565b6000819050919050565b61126661126182610bfe565b61124b565b82525050565b60006112788286611255565b6020820191506112888285611255565b6020820191506112988284611255565b602082019150819050949350505050565b7f4e487b7100000000000000000000000000000000000000000000000000000000600052601260045260246000fd5b60006112e382610bfe565b91506112ee83610bfe565b9250826112fe576112fd6112a9565b5b828206905092915050565b7f416c6c207072697a65732068617665206265656e20636c61696d656400000000600082015250565b600061133f601c83610f27565b915061134a82611309565b602082019050919050565b6000602082019050818103600083015261136e81611332565b9050919050565b600061138082610bfe565b915061138b83610bfe565b925082820261139981610bfe565b915082820484148315176113b0576113af610fa4565b5b5092915050565b60006113c282610bfe565b91506113cd83610bfe565b9250826113dd576113dc6112a9565b5b82820490509291505056fea2646970667358221220185cb3360ef8320a11f125a4b850e216c20e2059ffcf6611a87a96ff2568e17e64736f6c63430008130033",
  "immutableReferences": {},
  "source": "// SPDX-License-Identifier: MIT\npragma solidity ^0.8.19;\n\ncontract PrizeBondSystem {\n    struct PrizeBond {\n        uint id;\n        address owner;\n        uint value;\n        bool redeemed;\n    }\n\n    mapping(uint => PrizeBond) public prizeBonds;\n    uint public totalPrizeBonds;\n    uint public totalPrizes;\n\n    uint[] public prizeDistribution;\n    uint public nextPrizeIndex;\n    uint public remainingPrizeFund;\n\n     uint public totalWinnersSelected;\n    mapping(uint => address) public winners;\n\n    constructor (uint[] memory _prizeDistribution) {\n        totalPrizeBonds = 0;\n        totalPrizes = 0;\n        prizeDistribution = _prizeDistribution;\n        nextPrizeIndex = 0;\n        remainingPrizeFund = totalPrizes;\n        totalWinnersSelected=0;\n    }\n\n    function issuePrizeBond(uint _value) public {\n        totalPrizeBonds++;\n        prizeBonds[totalPrizeBonds] = PrizeBond(totalPrizeBonds, msg.sender, _value, false);\n        totalPrizes += _value;\n        remainingPrizeFund += _value;\n        if (totalPrizeBonds == 10) {\n            selectWinners();\n        }\n    }\n\n    function checkPrizeBond(uint _bondId) public view returns (bool) {\n        require(_bondId > 0 && _bondId <= totalPrizeBonds, \"Invalid bond ID\");\n        require (_bondId == prizeBonds[_bondId].id, \"Invalid bond ID\");\n        return prizeBonds[_bondId].redeemed;\n    }\n    function selectWinners() private {\n        require(totalWinnersSelected < 3, \"Winners already selected\");\n\n        for (uint i = 0; i < 3; i++) {\n            uint rand = uint(keccak256(abi.encodePacked(block.timestamp, block.difficulty, i))) % totalPrizeBonds + 1;\n            winners[i] = prizeBonds[rand].owner;\n            totalWinnersSelected++;\n        }\n    }\n    function claimPrize(uint _bondId) public {\n        require(_bondId > 0 && _bondId <= totalPrizeBonds, \"Invalid bond ID\");\n        require(prizeBonds[_bondId].owner == msg.sender, \"You are not the owner of this bond\");\n        require(!prizeBonds[_bondId].redeemed, \"Prize already claimed\");\n\n        prizeBonds[_bondId].redeemed = true;\n        uint prizeAmount = calculatePrizeAmount();\n        if (prizeAmount < remainingPrizeFund) {\n            prizeAmount = remainingPrizeFund;\n        }\n        remainingPrizeFund -= prizeAmount;\n        totalPrizes -= prizeAmount;\n        payable(msg.sender).transfer(prizeAmount);\n    }\n\n    function calculatePrizeAmount() private returns (uint) {\n        require(nextPrizeIndex < prizeDistribution.length, \"All prizes have been claimed\");\n\n        uint prizeAmount = totalPrizes * prizeDistribution[nextPrizeIndex] / 100;\n        nextPrizeIndex++;\n        return prizeAmount;\n    }\n    function getBondOwner(uint _bondId) public view returns (address){\n        return prizeBonds[_bondId].owner;\n    }\n    function getWinners() public view returns (address[] memory) {\n        address[] memory selectedWinners = new address[](3);\n        for (uint i = 0; i < 3; i++) {\n            selectedWinners[i] = winners[i];\n        }\n        return selectedWinners;\n    }\n \n    // function distributeRemainingPrize() public {\n    //     require(nextPrizeIndex == prizeDistribution.length, \"All prizes have not been claimed yet\");\n    //     require(remainingPrizeFund == 0, \"Remaining prize fund has already been distributed\");\n\n    //     remainingPrizeFund = totalPrizes;\n    //     uint numParticipants = totalPrizeBonds - nextPrizeIndex;\n    //     uint prizePerParticipant = remainingPrizeFund / numParticipants;\n    //     remainingPrizeFund = 0;\n\n    //     for (uint i = nextPrizeIndex; i <= totalPrizeBonds; i++) {\n    //         if (!prizeBonds[i].redeemed) {\n    //             payable(prizeBonds[i].owner).transfer(prizePerParticipant);\n    //         }\n    //     }\n    // }\n\n    function getTotalPrizes() public view returns (uint) {\n        return totalPrizes;\n    }\n    function getTotalPrizeBonds() public view returns (uint) {\n        return totalPrizeBonds;\n    }\n    function getPrizeDistribution() public view returns (uint[] memory) {\n        return prizeDistribution;\n    }\n\n    function getRemainingPrizeFund() public view returns (uint) {\n        return remainingPrizeFund;\n    }\n}\n",
  "sourcePath": "/home/hp/Desktop/dapp/etherPrizeBond/contracts/PrizeBondSystem.sol",
  "compiler": {
    "name": "solc",
    "version": "0.8.19+commit.7dd6d404.Emscripten.clang"
  },
  "schemaVersion": "3.4.16",
  "updatedAt": "2024-05-05T17:56:44.371Z",
  "networkType": "ethereum",
  "devdoc": {
    "kind": "dev",
    "methods": {},
    "version": 1
  },
  "userdoc": {
    "kind": "user",
    "methods": {},
    "version": 1
  }
}