{
  "contractName": "PrizeBondSystem",
  "abi": [
    {
      "inputs": [
        {
          "internalType": "uint256[]",
          "name": "_prizeDistribution",
          "type": "uint256[]"
        }
      ],
      "stateMutability": "nonpayable",
      "type": "constructor"
    },
    {
      "inputs": [],
      "name": "nextPrizeIndex",
      "outputs": [
        {
          "internalType": "uint256",
          "name": "",
          "type": "uint256"
        }
      ],
      "stateMutability": "view",
      "type": "function",
      "constant": true
    },
    {
      "inputs": [],
      "name": "nextWinnerIndex",
      "outputs": [
        {
          "internalType": "uint256",
          "name": "",
          "type": "uint256"
        }
      ],
      "stateMutability": "view",
      "type": "function",
      "constant": true
    },
    {
      "inputs": [
        {
          "internalType": "uint256",
          "name": "",
          "type": "uint256"
        }
      ],
      "name": "prizeBonds",
      "outputs": [
        {
          "internalType": "uint256",
          "name": "id",
          "type": "uint256"
        },
        {
          "internalType": "address",
          "name": "owner",
          "type": "address"
        },
        {
          "internalType": "uint256",
          "name": "value",
          "type": "uint256"
        },
        {
          "internalType": "bool",
          "name": "redeemed",
          "type": "bool"
        }
      ],
      "stateMutability": "view",
      "type": "function",
      "constant": true
    },
    {
      "inputs": [
        {
          "internalType": "uint256",
          "name": "",
          "type": "uint256"
        }
      ],
      "name": "prizeDistribution",
      "outputs": [
        {
          "internalType": "uint256",
          "name": "",
          "type": "uint256"
        }
      ],
      "stateMutability": "view",
      "type": "function",
      "constant": true
    },
    {
      "inputs": [],
      "name": "remainingPrizeFund",
      "outputs": [
        {
          "internalType": "uint256",
          "name": "",
          "type": "uint256"
        }
      ],
      "stateMutability": "view",
      "type": "function",
      "constant": true
    },
    {
      "inputs": [],
      "name": "totalPrizeBonds",
      "outputs": [
        {
          "internalType": "uint256",
          "name": "",
          "type": "uint256"
        }
      ],
      "stateMutability": "view",
      "type": "function",
      "constant": true
    },
    {
      "inputs": [],
      "name": "totalPrizes",
      "outputs": [
        {
          "internalType": "uint256",
          "name": "",
          "type": "uint256"
        }
      ],
      "stateMutability": "view",
      "type": "function",
      "constant": true
    },
    {
      "inputs": [],
      "name": "totalWinnersSelected",
      "outputs": [
        {
          "internalType": "uint256",
          "name": "",
          "type": "uint256"
        }
      ],
      "stateMutability": "view",
      "type": "function",
      "constant": true
    },
    {
      "inputs": [
        {
          "internalType": "address",
          "name": "",
          "type": "address"
        }
      ],
      "name": "winnerBondIDs",
      "outputs": [
        {
          "internalType": "uint256",
          "name": "",
          "type": "uint256"
        }
      ],
      "stateMutability": "view",
      "type": "function",
      "constant": true
    },
    {
      "inputs": [
        {
          "internalType": "uint256",
          "name": "",
          "type": "uint256"
        }
      ],
      "name": "winnerPrizeAmounts",
      "outputs": [
        {
          "internalType": "uint256",
          "name": "",
          "type": "uint256"
        }
      ],
      "stateMutability": "view",
      "type": "function",
      "constant": true
    },
    {
      "inputs": [
        {
          "internalType": "uint256",
          "name": "",
          "type": "uint256"
        }
      ],
      "name": "winners",
      "outputs": [
        {
          "internalType": "address",
          "name": "",
          "type": "address"
        }
      ],
      "stateMutability": "view",
      "type": "function",
      "constant": true
    },
    {
      "inputs": [],
      "name": "winnersSelected",
      "outputs": [
        {
          "internalType": "bool",
          "name": "",
          "type": "bool"
        }
      ],
      "stateMutability": "view",
      "type": "function",
      "constant": true
    },
    {
      "inputs": [
        {
          "internalType": "uint256",
          "name": "_dollarAmount",
          "type": "uint256"
        }
      ],
      "name": "issuePrizeBond",
      "outputs": [],
      "stateMutability": "payable",
      "type": "function",
      "payable": true
    },
    {
      "inputs": [
        {
          "internalType": "uint256",
          "name": "_bondId",
          "type": "uint256"
        }
      ],
      "name": "checkPrizeBond",
      "outputs": [
        {
          "internalType": "bool",
          "name": "",
          "type": "bool"
        }
      ],
      "stateMutability": "view",
      "type": "function",
      "constant": true
    },
    {
      "inputs": [
        {
          "internalType": "uint256",
          "name": "_bondId",
          "type": "uint256"
        }
      ],
      "name": "claimPrize",
      "outputs": [
        {
          "internalType": "uint256",
          "name": "",
          "type": "uint256"
        }
      ],
      "stateMutability": "nonpayable",
      "type": "function"
    },
    {
      "inputs": [
        {
          "internalType": "uint256",
          "name": "_bondId",
          "type": "uint256"
        }
      ],
      "name": "getBondOwner",
      "outputs": [
        {
          "internalType": "address",
          "name": "",
          "type": "address"
        }
      ],
      "stateMutability": "view",
      "type": "function",
      "constant": true
    },
    {
      "inputs": [],
      "name": "getWinners",
      "outputs": [
        {
          "internalType": "address[]",
          "name": "",
          "type": "address[]"
        }
      ],
      "stateMutability": "view",
      "type": "function",
      "constant": true
    },
    {
      "inputs": [],
      "name": "getWinnerBondIDs",
      "outputs": [
        {
          "internalType": "uint256[]",
          "name": "",
          "type": "uint256[]"
        }
      ],
      "stateMutability": "view",
      "type": "function",
      "constant": true
    },
    {
      "inputs": [],
      "name": "areWinnersSelected",
      "outputs": [
        {
          "internalType": "bool",
          "name": "",
          "type": "bool"
        }
      ],
      "stateMutability": "view",
      "type": "function",
      "constant": true
    },
    {
      "inputs": [],
      "name": "getContractBalance",
      "outputs": [
        {
          "internalType": "uint256",
          "name": "",
          "type": "uint256"
        }
      ],
      "stateMutability": "view",
      "type": "function",
      "constant": true
    },
    {
      "inputs": [],
      "name": "getPrizeAmounts",
      "outputs": [
        {
          "internalType": "uint256[]",
          "name": "",
          "type": "uint256[]"
        }
      ],
      "stateMutability": "view",
      "type": "function",
      "constant": true
    },
    {
      "inputs": [],
      "name": "getTotalPrizes",
      "outputs": [
        {
          "internalType": "uint256",
          "name": "",
          "type": "uint256"
        }
      ],
      "stateMutability": "view",
      "type": "function",
      "constant": true
    },
    {
      "inputs": [],
      "name": "getTotalPrizeBonds",
      "outputs": [
        {
          "internalType": "uint256",
          "name": "",
          "type": "uint256"
        }
      ],
      "stateMutability": "view",
      "type": "function",
      "constant": true
    },
    {
      "inputs": [],
      "name": "getPrizeDistribution",
      "outputs": [
        {
          "internalType": "uint256[]",
          "name": "",
          "type": "uint256[]"
        }
      ],
      "stateMutability": "view",
      "type": "function",
      "constant": true
    },
    {
      "inputs": [],
      "name": "getRemainingPrizeFund",
      "outputs": [
        {
          "internalType": "uint256",
          "name": "",
          "type": "uint256"
        }
      ],
      "stateMutability": "view",
      "type": "function",
      "constant": true
    }
  ],
  "bytecode": "0x60806040523480156200001157600080fd5b5060405162001f6138038062001f618339818101604052810190620000379190620002b5565b6000600181905550600060028190555080600390805190602001906200005f92919062000080565b50600060048190555060025460068190555060006007819055505062000306565b828054828255906000526020600020908101928215620000bf579160200282015b82811115620000be578251825591602001919060010190620000a1565b5b509050620000ce9190620000d2565b5090565b5b80821115620000ed576000816000905550600101620000d3565b5090565b6000604051905090565b600080fd5b600080fd5b600080fd5b6000601f19601f8301169050919050565b7f4e487b7100000000000000000000000000000000000000000000000000000000600052604160045260246000fd5b62000155826200010a565b810181811067ffffffffffffffff821117156200017757620001766200011b565b5b80604052505050565b60006200018c620000f1565b90506200019a82826200014a565b919050565b600067ffffffffffffffff821115620001bd57620001bc6200011b565b5b602082029050602081019050919050565b600080fd5b6000819050919050565b620001e881620001d3565b8114620001f457600080fd5b50565b6000815190506200020881620001dd565b92915050565b6000620002256200021f846200019f565b62000180565b905080838252602082019050602084028301858111156200024b576200024a620001ce565b5b835b81811015620002785780620002638882620001f7565b8452602084019350506020810190506200024d565b5050509392505050565b600082601f8301126200029a576200029962000105565b5b8151620002ac8482602086016200020e565b91505092915050565b600060208284031215620002ce57620002cd620000fb565b5b600082015167ffffffffffffffff811115620002ef57620002ee62000100565b5b620002fd8482850162000282565b91505092915050565b611c4b80620003166000396000f3fe6080604052600436106101665760003560e01c806382bc35b1116100d1578063bb305ef21161008a578063ce20c25211610064578063ce20c25214610564578063d70981541461058f578063df15c37e146105cc578063ef24822f146105f757610166565b8063bb305ef2146104d1578063cbd3f9621461050e578063cd57067b1461053957610166565b806382bc35b1146103a55780638bc53285146103c15780638bd473ff146103ec578063921bf25f14610429578063a2fb117514610454578063a86932c51461049157610166565b806354c237b71161012357806354c237b7146102915780635992f36e146102ce57806365a9e13c146102f957806368114b75146103245780636a30847d1461034f5780636f9fb98a1461037a57610166565b80630631e93f1461016b578063137a50c1146101965780631cf34e51146101d357806325e6c3041461021057806330e803881461023b578063338bd51114610266575b600080fd5b34801561017757600080fd5b50610180610622565b60405161018d91906112c7565b60405180910390f35b3480156101a257600080fd5b506101bd60048036038101906101b89190611313565b610628565b6040516101ca919061135b565b60405180910390f35b3480156101df57600080fd5b506101fa60048036038101906101f591906113d4565b6106fb565b60405161020791906112c7565b60405180910390f35b34801561021c57600080fd5b50610225610713565b60405161023291906112c7565b60405180910390f35b34801561024757600080fd5b50610250610719565b60405161025d91906112c7565b60405180910390f35b34801561027257600080fd5b5061027b61071f565b604051610288919061135b565b60405180910390f35b34801561029d57600080fd5b506102b860048036038101906102b39190611313565b610736565b6040516102c591906112c7565b60405180910390f35b3480156102da57600080fd5b506102e361075a565b6040516102f091906114bf565b60405180910390f35b34801561030557600080fd5b5061030e6107b2565b60405161031b91906112c7565b60405180910390f35b34801561033057600080fd5b506103396107b8565b60405161034691906114bf565b60405180910390f35b34801561035b57600080fd5b506103646108c1565b60405161037191906112c7565b60405180910390f35b34801561038657600080fd5b5061038f6108c7565b60405161039c91906112c7565b60405180910390f35b6103bf60048036038101906103ba9190611313565b6108cf565b005b3480156103cd57600080fd5b506103d6610a66565b6040516103e3919061135b565b60405180910390f35b3480156103f857600080fd5b50610413600480360381019061040e9190611313565b610a79565b60405161042091906112c7565b60405180910390f35b34801561043557600080fd5b5061043e610a9d565b60405161044b91906112c7565b60405180910390f35b34801561046057600080fd5b5061047b60048036038101906104769190611313565b610aa7565b60405161048891906114f0565b60405180910390f35b34801561049d57600080fd5b506104b860048036038101906104b39190611313565b610ada565b6040516104c8949392919061150b565b60405180910390f35b3480156104dd57600080fd5b506104f860048036038101906104f39190611313565b610b37565b60405161050591906114f0565b60405180910390f35b34801561051a57600080fd5b50610523610b76565b60405161053091906114bf565b60405180910390f35b34801561054557600080fd5b5061054e610bce565b60405161055b91906112c7565b60405180910390f35b34801561057057600080fd5b50610579610bd4565b60405161058691906112c7565b60405180910390f35b34801561059b57600080fd5b506105b660048036038101906105b19190611313565b610bde565b6040516105c391906112c7565b60405180910390f35b3480156105d857600080fd5b506105e1610e68565b6040516105ee919061160e565b60405180910390f35b34801561060357600080fd5b5061060c610f60565b60405161061991906112c7565b60405180910390f35b60075481565b6000808211801561063b57506001548211155b61067a576040517f08c379a00000000000000000000000000000000000000000000000000000000081526004016106719061168d565b60405180910390fd5b6000808381526020019081526020016000206000015482146106d1576040517f08c379a00000000000000000000000000000000000000000000000000000000081526004016106c89061168d565b60405180910390fd5b60008083815260200190815260200160002060030160009054906101000a900460ff169050919050565b60096020528060005260406000206000915090505481565b60025481565b60015481565b6000600b60009054906101000a900460ff16905090565b6003818154811061074657600080fd5b906000526020600020016000915090505481565b6060600a8054806020026020016040519081016040528092919081815260200182805480156107a857602002820191906000526020600020905b815481526020019060010190808311610794575b5050505050905090565b60045481565b60606000600367ffffffffffffffff8111156107d7576107d66116ad565b5b6040519080825280602002602001820160405280156108055781602001602082028036833780820191505090505b50905060005b60038110156108b957600960006008600084815260200190815260200160002060009054906101000a900473ffffffffffffffffffffffffffffffffffffffff1673ffffffffffffffffffffffffffffffffffffffff1673ffffffffffffffffffffffffffffffffffffffff1681526020019081526020016000205482828151811061089a576108996116dc565b5b60200260200101818152505080806108b19061173a565b91505061080b565b508091505090565b60065481565b600047905090565b60006107d0670de0b6b3a7640000836108e89190611782565b6108f291906117f3565b905080341015610937576040517f08c379a000000000000000000000000000000000000000000000000000000000815260040161092e90611896565b60405180910390fd5b6001600081548092919061094a9061173a565b9190505550604051806080016040528060015481526020013373ffffffffffffffffffffffffffffffffffffffff1681526020018281526020016000151581525060008060015481526020019081526020016000206000820151816000015560208201518160010160006101000a81548173ffffffffffffffffffffffffffffffffffffffff021916908373ffffffffffffffffffffffffffffffffffffffff1602179055506040820151816002015560608201518160030160006101000a81548160ff0219169083151502179055509050508160026000828254610a2f91906118b6565b925050819055508160066000828254610a4891906118b6565b92505081905550600a60015403610a6257610a61610f6a565b5b5050565b600b60009054906101000a900460ff1681565b600a8181548110610a8957600080fd5b906000526020600020016000915090505481565b6000600254905090565b60086020528060005260406000206000915054906101000a900473ffffffffffffffffffffffffffffffffffffffff1681565b60006020528060005260406000206000915090508060000154908060010160009054906101000a900473ffffffffffffffffffffffffffffffffffffffff16908060020154908060030160009054906101000a900460ff16905084565b600080600083815260200190815260200160002060010160009054906101000a900473ffffffffffffffffffffffffffffffffffffffff169050919050565b60606003805480602002602001604051908101604052809291908181526020018280548015610bc457602002820191906000526020600020905b815481526020019060010190808311610bb0575b5050505050905090565b60055481565b6000600654905090565b60008082118015610bf157506001548211155b610c30576040517f08c379a0000000000000000000000000000000000000000000000000000000008152600401610c279061168d565b60405180910390fd5b3373ffffffffffffffffffffffffffffffffffffffff1660008084815260200190815260200160002060010160009054906101000a900473ffffffffffffffffffffffffffffffffffffffff1673ffffffffffffffffffffffffffffffffffffffff1614610cd3576040517f08c379a0000000000000000000000000000000000000000000000000000000008152600401610cca9061195c565b60405180910390fd5b60008083815260200190815260200160002060030160009054906101000a900460ff1615610d36576040517f08c379a0000000000000000000000000000000000000000000000000000000008152600401610d2d906119c8565b60405180910390fd5b600160008084815260200190815260200160002060030160006101000a81548160ff0219169083151502179055506000600a60056000815480929190610d7b9061173a565b9190505581548110610d9057610d8f6116dc565b5b90600052602060002001549050600047905080821115610de5576040517f08c379a0000000000000000000000000000000000000000000000000000000008152600401610ddc90611a5a565b60405180910390fd5b8160026000828254610df79190611a7a565b925050819055506000670de0b6b3a764000083610e149190611782565b90503373ffffffffffffffffffffffffffffffffffffffff166108fc829081150290604051600060405180830381858888f19350505050158015610e5c573d6000803e3d6000fd5b50829350505050919050565b60606000600367ffffffffffffffff811115610e8757610e866116ad565b5b604051908082528060200260200182016040528015610eb55781602001602082028036833780820191505090505b50905060005b6003811015610f58576008600082815260200190815260200160002060009054906101000a900473ffffffffffffffffffffffffffffffffffffffff16828281518110610f0b57610f0a6116dc565b5b602002602001019073ffffffffffffffffffffffffffffffffffffffff16908173ffffffffffffffffffffffffffffffffffffffff16815250508080610f509061173a565b915050610ebb565b508091505090565b6000600154905090565b600360075410610faf576040517f08c379a0000000000000000000000000000000000000000000000000000000008152600401610fa690611afa565b60405180910390fd5b6000600367ffffffffffffffff811115610fcc57610fcb6116ad565b5b604051908082528060200260200182016040528015610ffa5781602001602082028036833780820191505090505b50905060005b6003811015611202576000805b6001805442448660405160200161102693929190611b3b565b6040516020818303038152906040528051906020012060001c6110499190611b78565b61105391906118b6565b91506000905060005b838110156110a15782858281518110611078576110776116dc565b5b60200260200101510361108e57600191506110a1565b80806110999061173a565b91505061105c565b508061100d5760008083815260200190815260200160002060010160009054906101000a900473ffffffffffffffffffffffffffffffffffffffff166008600085815260200190815260200160002060006101000a81548173ffffffffffffffffffffffffffffffffffffffff021916908373ffffffffffffffffffffffffffffffffffffffff16021790555081600960006008600087815260200190815260200160002060009054906101000a900473ffffffffffffffffffffffffffffffffffffffff1673ffffffffffffffffffffffffffffffffffffffff1673ffffffffffffffffffffffffffffffffffffffff16815260200190815260200160002081905550600a6111af611206565b9080600181540180825580915050600190039060005260206000200160009091909190915055600760008154809291906111e89061173a565b9190505550505080806111fa9061173a565b915050611000565b5050565b600060038054905060045410611251576040517f08c379a000000000000000000000000000000000000000000000000000000000815260040161124890611bf5565b60405180910390fd5b6000606460036004548154811061126b5761126a6116dc565b5b90600052602060002001546002546112839190611782565b61128d91906117f3565b9050600460008154809291906112a29061173a565b91905055508091505090565b6000819050919050565b6112c1816112ae565b82525050565b60006020820190506112dc60008301846112b8565b92915050565b600080fd5b6112f0816112ae565b81146112fb57600080fd5b50565b60008135905061130d816112e7565b92915050565b600060208284031215611329576113286112e2565b5b6000611337848285016112fe565b91505092915050565b60008115159050919050565b61135581611340565b82525050565b6000602082019050611370600083018461134c565b92915050565b600073ffffffffffffffffffffffffffffffffffffffff82169050919050565b60006113a182611376565b9050919050565b6113b181611396565b81146113bc57600080fd5b50565b6000813590506113ce816113a8565b92915050565b6000602082840312156113ea576113e96112e2565b5b60006113f8848285016113bf565b91505092915050565b600081519050919050565b600082825260208201905092915050565b6000819050602082019050919050565b611436816112ae565b82525050565b6000611448838361142d565b60208301905092915050565b6000602082019050919050565b600061146c82611401565b611476818561140c565b93506114818361141d565b8060005b838110156114b2578151611499888261143c565b97506114a483611454565b925050600181019050611485565b5085935050505092915050565b600060208201905081810360008301526114d98184611461565b905092915050565b6114ea81611396565b82525050565b600060208201905061150560008301846114e1565b92915050565b600060808201905061152060008301876112b8565b61152d60208301866114e1565b61153a60408301856112b8565b611547606083018461134c565b95945050505050565b600081519050919050565b600082825260208201905092915050565b6000819050602082019050919050565b61158581611396565b82525050565b6000611597838361157c565b60208301905092915050565b6000602082019050919050565b60006115bb82611550565b6115c5818561155b565b93506115d08361156c565b8060005b838110156116015781516115e8888261158b565b97506115f3836115a3565b9250506001810190506115d4565b5085935050505092915050565b6000602082019050818103600083015261162881846115b0565b905092915050565b600082825260208201905092915050565b7f496e76616c696420626f6e642049440000000000000000000000000000000000600082015250565b6000611677600f83611630565b915061168282611641565b602082019050919050565b600060208201905081810360008301526116a68161166a565b9050919050565b7f4e487b7100000000000000000000000000000000000000000000000000000000600052604160045260246000fd5b7f4e487b7100000000000000000000000000000000000000000000000000000000600052603260045260246000fd5b7f4e487b7100000000000000000000000000000000000000000000000000000000600052601160045260246000fd5b6000611745826112ae565b91507fffffffffffffffffffffffffffffffffffffffffffffffffffffffffffffffff82036117775761177661170b565b5b600182019050919050565b600061178d826112ae565b9150611798836112ae565b92508282026117a6816112ae565b915082820484148315176117bd576117bc61170b565b5b5092915050565b7f4e487b7100000000000000000000000000000000000000000000000000000000600052601260045260246000fd5b60006117fe826112ae565b9150611809836112ae565b925082611819576118186117c4565b5b828204905092915050565b7f496e73756666696369656e742066756e64732073656e7420776974682074726160008201527f6e73616374696f6e000000000000000000000000000000000000000000000000602082015250565b6000611880602883611630565b915061188b82611824565b604082019050919050565b600060208201905081810360008301526118af81611873565b9050919050565b60006118c1826112ae565b91506118cc836112ae565b92508282019050808211156118e4576118e361170b565b5b92915050565b7f596f7520617265206e6f7420746865206f776e6572206f66207468697320626f60008201527f6e64000000000000000000000000000000000000000000000000000000000000602082015250565b6000611946602283611630565b9150611951826118ea565b604082019050919050565b6000602082019050818103600083015261197581611939565b9050919050565b7f5072697a6520616c726561647920636c61696d65640000000000000000000000600082015250565b60006119b2601583611630565b91506119bd8261197c565b602082019050919050565b600060208201905081810360008301526119e1816119a5565b9050919050565b7f4e6f7420656e6f7567682062616c616e636520696e2074686520636f6e74726160008201527f6374000000000000000000000000000000000000000000000000000000000000602082015250565b6000611a44602283611630565b9150611a4f826119e8565b604082019050919050565b60006020820190508181036000830152611a7381611a37565b9050919050565b6000611a85826112ae565b9150611a90836112ae565b9250828203905081811115611aa857611aa761170b565b5b92915050565b7f57696e6e65727320616c72656164792073656c65637465640000000000000000600082015250565b6000611ae4601883611630565b9150611aef82611aae565b602082019050919050565b60006020820190508181036000830152611b1381611ad7565b9050919050565b6000819050919050565b611b35611b30826112ae565b611b1a565b82525050565b6000611b478286611b24565b602082019150611b578285611b24565b602082019150611b678284611b24565b602082019150819050949350505050565b6000611b83826112ae565b9150611b8e836112ae565b925082611b9e57611b9d6117c4565b5b828206905092915050565b7f416c6c207072697a65732068617665206265656e20636c61696d656400000000600082015250565b6000611bdf601c83611630565b9150611bea82611ba9565b602082019050919050565b60006020820190508181036000830152611c0e81611bd2565b905091905056fea264697066735822122011629e6965e761393f0b504ac81b790b3a9cc2a24a8570e07c03f7170b5d8fc164736f6c63430008130033",
  "immutableReferences": {},
  "source": "// SPDX-License-Identifier: MIT\npragma solidity ^0.8.19;\n\ncontract PrizeBondSystem {\n    struct PrizeBond {\n        uint id;\n        address owner;\n        uint value;\n        bool redeemed;\n    }\n\n    \n    mapping(uint => PrizeBond) public prizeBonds;\n    uint public totalPrizeBonds;\n    uint public totalPrizes;\n\n    uint[] public prizeDistribution;\n    uint public nextPrizeIndex;\n    uint public nextWinnerIndex;\n    uint public remainingPrizeFund;\n\n    uint public totalWinnersSelected;\n    mapping(uint => address) public winners;\n    mapping (address=>uint) public winnerBondIDs;\n    uint[] public winnerPrizeAmounts;\n    bool public winnersSelected;\n\n    uint constant ETH_USD_EXCHANGE_RATE = 2000; // 1 ETH = 2000 USD\n\n    constructor (uint[] memory _prizeDistribution) {\n        totalPrizeBonds = 0;\n        totalPrizes = 0;\n        prizeDistribution = _prizeDistribution;\n        nextPrizeIndex = 0;\n        remainingPrizeFund = totalPrizes;\n        totalWinnersSelected=0;\n    }\n\n    // function issuePrizeBond(uint _dollarAmount) public payable {\n    //     //value is in dollars\n    //     //conveting to wei \n    //     uint amountInWei = _dollarAmount * 1 ether / ETH_USD_EXCHANGE_RATE;\n    //     totalPrizeBonds++;\n    //     prizeBonds[totalPrizeBonds] = PrizeBond(totalPrizeBonds, msg.sender, amountInWei, false);\n    //     totalPrizes += _dollarAmount;\n    //     remainingPrizeFund += _dollarAmount;\n\n    //     address payable contractAddress = payable(address(this));\n    //     contractAddress.transfer(amountInWei); // Transfer Ether to the contract\n    //     // if (totalPrizeBonds == 10) {\n    //     //     selectWinners();\n    //     // }\n    // }\n    function issuePrizeBond(uint _dollarAmount) public payable {\n    //value is in dollars\n    //converting to wei \n    uint amountInWei = _dollarAmount * 1 ether / ETH_USD_EXCHANGE_RATE;\n    require(msg.value >= amountInWei, \"Insufficient funds sent with transaction\");\n    \n    totalPrizeBonds++;\n    prizeBonds[totalPrizeBonds] = PrizeBond(totalPrizeBonds, msg.sender, amountInWei, false);\n    totalPrizes += _dollarAmount;\n    remainingPrizeFund += _dollarAmount;\n\n\n        // Check if all prize bonds have been issued and start winner selection\n    if (totalPrizeBonds == 10) {\n            selectWinners();\n        }\n    }\n\n    // function startWinnerSelection() public {\n    //     require(totalPrizeBonds == 10, \"Not all prize bonds have been issued yet\");\n    //     selectWinners();\n    // }\n    function checkPrizeBond(uint _bondId) public view returns (bool) {\n        require(_bondId > 0 && _bondId <= totalPrizeBonds, \"Invalid bond ID\");\n        require (_bondId == prizeBonds[_bondId].id, \"Invalid bond ID\");\n        return prizeBonds[_bondId].redeemed;\n    }\n\n    function selectWinners() private {\n        require(totalWinnersSelected < 3, \"Winners already selected\");\n        uint[] memory selectedBondIds = new uint[](3);\n        for (uint i = 0; i < 3; i++) {\n            // uint rand = uint(keccak256(abi.encodePacked(block.timestamp, block.difficulty, i))) % totalPrizeBonds + 1;\n            uint rand;\n            bool bondIdSelected;\n\n            do {\n                rand = uint(keccak256(abi.encodePacked(block.timestamp, block.difficulty, i))) % totalPrizeBonds + 1;\n                bondIdSelected = false;\n\n                // Check if the bond ID has already been selected\n                for (uint j = 0; j < i; j++) {\n                    if (selectedBondIds[j] == rand) {\n                        bondIdSelected = true;\n                        break;\n                    }\n                }\n            } while (bondIdSelected);\n            winners[i] = prizeBonds[rand].owner;\n            winnerBondIDs[winners[i]]=rand;\n            winnerPrizeAmounts.push(calculatePrizeAmount());\n            totalWinnersSelected++;\n\n        }\n    }\n    \n    function claimPrize(uint _bondId) public returns(uint) {\n        require(_bondId > 0 && _bondId <= totalPrizeBonds, \"Invalid bond ID\");\n        require(prizeBonds[_bondId].owner == msg.sender, \"You are not the owner of this bond\");\n        require(!prizeBonds[_bondId].redeemed, \"Prize already claimed\");\n\n        prizeBonds[_bondId].redeemed = true;\n        uint prizeAmount = winnerPrizeAmounts[nextWinnerIndex++];\n        uint contractBalance = address(this).balance; // Get the contract's balance\n        require(prizeAmount <= contractBalance, \"Not enough balance in the contract\");\n        totalPrizes -= prizeAmount;\n        uint256 amountInWei = prizeAmount * 1 ether;\n        payable(msg.sender).transfer(amountInWei);\n        return prizeAmount;\n    }\n//     function claimPrize(uint _bondId) public returns (uint) {\n//     require(_bondId > 0 && _bondId <= totalPrizeBonds, \"Invalid bond ID\");\n//     require(prizeBonds[_bondId].owner == msg.sender, \"You are not the owner of this bond\");\n//     require(!prizeBonds[_bondId].redeemed, \"Prize already claimed\");\n\n//     prizeBonds[_bondId].redeemed = true;\n//     uint prizeAmount = winnerPrizeAmounts[nextWinnerIndex++];\n//     uint contractBalance = address(this).balance; // Get the contract's balance\n//     require(prizeAmount <= contractBalance, \"Not enough balance in the contract\");\n\n//     // Transfer the prize amount to the bond owner\n//     uint256 amountInWei = prizeAmount * 1 ether;\n//     (bool success, ) = payable(msg.sender).call{value: amountInWei}(\"\");\n//     require(success, \"Transfer failed\");\n\n//     totalPrizes -= prizeAmount;\n//     return prizeAmount;\n// }\n\n    \n    function calculatePrizeAmount() private returns (uint) {\n        require(nextPrizeIndex < prizeDistribution.length, \"All prizes have been claimed\");\n\n        uint prizeAmount = totalPrizes * prizeDistribution[nextPrizeIndex] / 100;\n        // winnerPrizeAmounts[nextPrizeIndex]=prizeAmount;\n        nextPrizeIndex++;\n        return prizeAmount;\n    }\n    function getBondOwner(uint _bondId) public view returns (address){\n        return prizeBonds[_bondId].owner;\n    }\n    function getWinners() public view returns (address[] memory) {\n        address[] memory selectedWinners = new address[](3);\n        for (uint i = 0; i < 3; i++) {\n            selectedWinners[i] = winners[i];\n        }\n        return selectedWinners;\n    }\n    function getWinnerBondIDs() public view returns(uint[] memory){\n        uint[] memory winnerBondId=new uint[](3);\n        for(uint i=0;i<3;i++){\n            winnerBondId[i]=winnerBondIDs[winners[i]];\n        }\n        return winnerBondId;\n        \n    }\n    // Function to check if winners have been selected\n    function areWinnersSelected() public view returns (bool) {\n        return winnersSelected;\n    }\n    function getContractBalance() public view returns (uint) {\n        return address(this).balance;\n    }\n\n    // function distributeRemainingPrize() public {\n    //     require(nextPrizeIndex == prizeDistribution.length, \"All prizes have not been claimed yet\");\n    //     require(remainingPrizeFund == 0, \"Remaining prize fund has already been distributed\");\n\n    //     remainingPrizeFund = totalPrizes;\n    //     uint numParticipants = totalPrizeBonds - nextPrizeIndex;\n    //     uint prizePerParticipant = remainingPrizeFund / numParticipants;\n    //     remainingPrizeFund = 0;\n\n    //     for (uint i = nextPrizeIndex; i <= totalPrizeBonds; i++) {\n    //         if (!prizeBonds[i].redeemed) {\n    //             payable(prizeBonds[i].owner).transfer(prizePerParticipant);\n    //         }\n    //     }\n    // }\n    function getPrizeAmounts() public view returns(uint[] memory){\n        return winnerPrizeAmounts;\n    }\n    function getTotalPrizes() public view returns (uint) {\n        return totalPrizes;\n    }\n    function getTotalPrizeBonds() public view returns (uint) {\n        return totalPrizeBonds;\n    }\n    function getPrizeDistribution() public view returns (uint[] memory) {\n        return prizeDistribution;\n    }\n\n    function getRemainingPrizeFund() public view returns (uint) {\n        return remainingPrizeFund;\n    }\n}\n",
  "sourcePath": "/home/hp/Desktop/dapp/etherPrizeBond/contracts/PrizeBondSystem.sol",
  "compiler": {
    "name": "solc",
    "version": "0.8.19+commit.7dd6d404.Emscripten.clang"
  },
  "schemaVersion": "3.4.16",
  "updatedAt": "2024-05-10T07:09:08.696Z",
  "networkType": "ethereum",
  "devdoc": {
    "kind": "dev",
    "methods": {},
    "version": 1
  },
  "userdoc": {
    "kind": "user",
    "methods": {},
    "version": 1
  }
}